:020000040800F2
:1080000000000220BD920008F9860008FB860008E7
:10801000FD860008FF8600080187000800000000B8
:1080200000000000000000000000000003870008BE
:10803000058700080000000007870008098700087E
:108040000D9300080D9300080D9300080D93000890
:108050000D9300080D930008118700080D93000888
:108060000D9300080D9300080D9300080D93000870
:108070000D9300080D9300080D9300080D93000860
:108080000D9300080D9300080D9300080D93000850
:108090000D9300080D9300080D9300080D93000840
:1080A0000D9300080D9300080D9300080D93000830
:1080B0000D9300080D9300080D9300080D93000820
:1080C0000D9300080D9300080D9300080D93000810
:1080D0000D9300080D9300080D9300080D93000800
:1080E0000D9300080D9300080D9300080D930008F0
:1080F0000D9300080D9300080D9300080D930008E0
:108100000D9300080D9300080D9300080D930008CF
:108110000D9300080D9300080D9300080D930008BF
:108120000D9300080D9300080D9300080D930008AF
:108130000D9300080D9300080D9300080D9300089F
:108140000D9300080D9300080D9300080D9300088F
:108150000D9300080D9300080D9300080D9300087F
:108160000D9300080D9300080D9300080D9300086F
:108170000D9300080D9300080D9300080000000007
:088180000D9300080D930008A7
:1081880010B5054C237833B9044B13B10448AFF349
:1081980000800123237010BD0C00002000000000A7
:1081A8006893000808B5034B1BB103490348AFF3B4
:1081B800008008BD0000000010000020689300083F
:1081C80053B94AB9002908BF00281CBF4FF0FF3136
:1081D8004FF0FF3000F072B9ADF1080C6DE904CE34
:1081E80000F006F8DDF804E0DDE9022304B070478A
:1081F8002DE9F047089E04468846002B4BD18A4259
:10820800154667D9B2FA82F24AB1C2F1200701FADB
:1082180002F320FA07F7954047EA030894404FEA2B
:10822800154E230CB8FBFEF71FFA85FC0EFB1788CA
:1082380043EA084307FB0CF1994209D9EB1807F107
:10824800FF3080F01B81994240F21881023F2B4495
:108258005B1AA4B2B3FBFEF00EFB103344EA0344EE
:1082680000FB0CFCA44509D92C1900F1FF3380F060
:108278000781A44540F2048102382C4440EA0740B3
:10828800A4EB0C0400271EB1D4400023C6E9004328
:108298003946BDE8F0878B4209D9002E00F0EB8003
:1082A8000027C6E9000138463946BDE8F087B3FA29
:1082B80083F7002F47D18B4202D3824200F2FA8023
:1082C800841A61EB030301209846002EE0D0C6E92A
:1082D8000048DDE702B9FFDEB2FA82F2002A40F078
:1082E8008F80491B4FEA154E1FFA85F80127B1FB0D
:1082F800FEFC230C0EFB1C1143EA014308FB0CF1A6
:10830800994207D9EB180CF1FF3002D2994200F2DA
:10831800CD808446591AA3B2B1FBFEF00EFB1014AF
:1083280043EA044408FB00F8A04507D92C1900F1DA
:10833800FF3302D2A04500F2B6801846A4EB080429
:1083480040EA0C409FE7C7F1200CBB4022FA0CFE24
:108358004EEA030E01FA07F420FA0CF521FA0CF3A1
:108368004FEA1E482543B3FBF8F92C0C08FB1933D8
:108378001FFA8EFA44EA034309FB0AF49C4202FA04
:1083880007F200FA07F10BD91EEB030309F1FF30DE
:1083980080F087809C4240F28480A9F102097344EE
:1083A8001B1BADB2B3FBF8F008FB103345EA0344DE
:1083B80000FB0AFAA24508D91EEB040400F1FF33BA
:1083C8006BD2A24569D90238744440EA0940A0FB3F
:1083D8000289A4EB0A044C45C2464B4654D351D0FB
:1083E800002E69D0B1EB0A0564EB030404FA0CFC17
:1083F800FD40FC404CEA0505C6E90054002747E764
:10840800C2F1200320FA03F7954001FA02F021FA9D
:1084180003F34FEA154E3843010CB3FBFEF71FFA7E
:1084280085F80EFB173341EA034107FB08F38B423B
:1084380004FA02F407D9691807F1FF3C2FD28B42DE
:108448002DD9023F2944CB1A81B2B3FBFEF00EFBB3
:10845800103341EA034100FB08F38B4207D969183E
:1084680000F1FF3C17D28B4215D902382944C91AAA
:1084780040EA07473BE73746304609E70746E7E65D
:108488001846FBE64145ABD2B8EB020A69EB0E028F
:1084980001381346A4E76046E9E7184695E76746BA
:1084A800D1E781467CE702382C4447E7ACF1020C5F
:1084B8002B442FE7384608E73746E9E6704700BF00
:1084C80070B588B000240394049405940694079426
:1084D80001941C4B1A6B42F001021A631A6B02F0EA
:1084E80001020192019A02941A6B42F008021A637F
:1084F8001B6B03F008030293029B134D22464FF4B3
:108508008051284600F0B8FA012603964FF48813E4
:108518000493059403A90D4800F0C4F94FF480535F
:10852800039304960594069403A9284600F0BAF923
:1085380022462146062000F05DF9062000F08EF95B
:1085480008B070BD00380240000C02400000024034
:1085580072B6FEE708B50A480A4B03604FF4E133E8
:10856800436000238360C36003610C22426183611E
:10857800C36100F06FFE00B908BDFFF7E9FF00BF57
:10858800280000200044004000B595B030220021AA
:1085980008A800F0DDFE00230393049305930693D7
:1085A800079301931F4A116C41F080511164126CBA
:1085B80002F080520192019A02931B4A116841F419
:1085C80080411160126802F480420292029A0222EB
:1085D800089201210B9110210C910E920F93082300
:1085E8001093A823119312920723139308A800F05D
:1085F80059FA98B90F230393022304930023059390
:108608004FF4A05306934FF480530793052103A812
:1086180000F0B0FC20B915B05DF804FBFFF798FF37
:10862800FFF796FF003802400070004008B500F0E0
:10863800A3F8FFF7A9FFFFF743FFFFF78BFFFEE75C
:1086480000B583B0002100910C4B5A6C42F4804273
:108658005A645A6C02F480420092009A01911A6C92
:1086680042F080521A641B6C03F080530193019B03
:10867800072000F0ADF803B05DF804FB00380240B5
:1086880000B589B0002303930493059306930793D9
:108698000268154B9A4202D009B05DF804FB00212C
:1086A800019103F5FA331A6C42F400321A641A6C19
:1086B80002F400320192019A02911A6B42F001020F
:1086C8001A631B6B03F001030293029B0C230393B1
:1086D80002230493032306930723079303A903485C
:1086E80000F0E0F8D8E700BF004400400000024076
:1086F800FEE7FEE7FEE7FEE7FEE7704770477047D4
:1087080008B500F053F808BD08B5012000F0BCF921
:1087180008BD0000044BD3F8882042F47002C3F867
:108728008820024A9A60704700ED00E00080000847
:1087380010B504460E4B18784FF47A73B3FBF0F378
:108748000C4A1068B0FBF3F000F096F868B90F2CEB
:1087580001D901200AE0002221464FF0FF3000F045
:1087680049F8034B5C60002000E0012010BD00BF09
:10877800040000200000002008B50B4B1A6842F4E2
:1087880000721A601A6842F480621A601A6842F429
:1087980080721A60032000F01BF80020FFF7C8FF62
:1087A800FFF74EFF002008BD003C0240034A116855
:1087B800034B1B780B441360704700BF6C0000200C
:1087C80004000020014B1868704700BF6C000020AF
:1087D800074AD36823F4E0631B041B0C000200F46F
:1087E800E060184340F0BF6040F40030D06070474C
:1087F80000ED00E030B4174BDB68C3F30223C3F18C
:108808000704042C28BF04241D1D062D18D9033B7A
:108818004FF0FF3505FA04F421EA0401994005FAFE
:1088280003F322EA0303194300280BDB0901C9B249
:1088380000F1604000F5614080F8001330BC7047DB
:108848000023E5E700F00F000901C9B2024B1954F3
:10885800F4E700BF00ED00E014ED00E0002807DBBE
:1088680000F01F02400901239340024A42F82030D9
:10887800704700BF00E100E00138B0F1807F0AD204
:10888800064B5860064AF02182F8231000209860B1
:1088980007221A6070470120704700BF10E000E00F
:1088A80000ED00E000230F2B00F2DC80F0B482B072
:1088B8005DE086685F000324BC4026EA0406CC68B5
:1088C800BC4034438460466826EA02064C68C4F318
:1088D80000129A403243426056E0DC08083450F8EF
:1088E800247003F0070296000F22B24027EA02071D
:1088F8000A69B2403A4340F8242059E0072200E0D0
:108908000022B2403A430234574E46F82420574AD0
:108918001468EA4302EA04064F6817F4803F01D05E
:1089280045EA0406514C2660646802EA04064F686A
:1089380017F4003F01D045EA04064C4C6660A46871
:1089480002EA04064F6817F4801F01D045EA0406BE
:10895800464CA660E46822404E6816F4001F01D019
:1089680045EA0402414CE26001330F2B77D801221B
:108978009A400C6804EA0205AA42F5D14C6804F052
:108988000304013C012C94D94A6802F00302032A2B
:1089980009D0C4685E000322B24024EA02048A684F
:1089A800B2402243C2604A6802F00302022A94D00D
:1089B80004685E000322B24024EA02044A6802F016
:1089C8000302B240224302604A6812F4403FCBD00F
:1089D80000220192264A546C44F480445464526C38
:1089E80002F480420192019A9C08A61C1E4A52F881
:1089F800267003F0030296000F22B24027EA02070E
:108A08001C4A90423FF47CAF02F5806290421AD033
:108A180002F58062904218D002F58062904216D02A
:108A280002F58062904214D002F58062904212D022
:108A380002F58062904210D002F5806290423FF4C5
:108A48005DAF08225DE701225BE7022259E70322B6
:108A580057E7042255E7052253E7062251E702B0FB
:108A6800F0BC7047704700BF00380140003C01402F
:108A7800003802400000024012B9090481617047C1
:108A8800816170477047000008B5054B5B69034278
:108A980000D108BD024B5861FFF7F4FFF9E700BFAA
:108AA800003C0140002800F0E98170B582B004461E
:108AB800036813F0010F3BD0A74B9B6803F00C032E
:108AC800042B2CD0A44B9B6803F00C03082B21D05B
:108AD8006368B3F5803F4FD0B3F5A02F52D09E4BBB
:108AE8001A6822F480321A601A6822F480221A6006
:108AF8006368002B50D0FFF765FE0546964B1B6850
:108B080013F4003F14D1FFF75DFE401B6428F5D92C
:108B18000320B8E1904B5B6813F4800FD8D08E4BDC
:108B28001B6813F4003F03D06368002B00F0A88192
:108B3800236813F0020F55D0874B9B6813F00C0F76
:108B48003ED0854B9B6803F00C03082B33D0E368B9
:108B5800002B68D0814B01221A60FFF733FE0546CF
:108B68007D4B1B6813F0020F54D1FFF72BFE401BFF
:108B78000228F5D9032086E1774A136843F4803345
:108B88001360B5E7744B1A6842F480221A601A68B9
:108B980042F480321A60ABE7FFF714FE05466E4BCD
:108BA8001B6813F4003FC3D0FFF70CFE401B64287A
:108BB800F5D9032067E1684B5B6813F4800FC6D1D1
:108BC800654B1B6813F0020F04D0E368012B01D03A
:108BD800012058E1604A136823F0F803216943EA49
:108BE800C1031360236813F0080F40D0636963B3AF
:108BF8005B4B01221A60FFF7E5FD0546564B5B6F9C
:108C080013F0020F33D1FFF7DDFD401B0228F5D921
:108C1800032038E1504A136823F0F803216943EA36
:108C2800C1031360DEE74D4B00221A60FFF7CAFD4F
:108C38000546494B1B6813F0020FD3D0FFF7C2FD5E
:108C4800401B0228F5D903201DE1454B00221A607C
:108C5800FFF7B8FD0546404B5B6F13F0020F06D0D7
:108C6800FFF7B0FD401B0228F5D903200BE123686C
:108C780013F0040F79D0384B1B6C13F0805F33D19D
:108C880000230193344B1A6C42F080521A641B6C17
:108C980003F080530193019B0125324B1B6813F4A9
:108CA800807F23D0A368012B34D0052B38D02A4BE2
:108CB8001A6F22F001021A671A6F22F004021A676B
:108CC800A368002B36D0FFF77DFD0646224B1B6FAD
:108CD80013F0020F48D1FFF775FD801B41F288336E
:108CE8009842F3D90320CEE00025D6E71D4A136841
:108CF80043F480731360FFF765FD0646194B1B6844
:108D080013F4807FCED1FFF75DFD801B0228F5D9D3
:108D18000320B8E0104A136F43F001031367CFE74D
:108D28000D4B1A6F42F004021A671A6F42F00102E3
:108D38001A67C5E7FFF746FD0646074B1B6F13F09A
:108D4800020F11D0FFF73EFD801B41F28833984295
:108D5800F3D9032097E000BF0038024000004742E3
:108D6800800E474200700040EDB9A369002B00F067
:108D78008980484A926802F00C02082A51D0022BD6
:108D880017D0454B00221A60FFF71CFD0446414BE3
:108D98001B6813F0007F42D0FFF714FD001B022868
:108DA800F5D903206FE03B4A136C23F0805313641A
:108DB800DBE7394B00221A60FFF704FD0546354B07
:108DC8001B6813F0007F06D0FFF7FCFC401B02284D
:108DD800F5D9032057E0E369226A1343626A43EA3C
:108DE8008213A26A5208013A43EA0243E26A43EA5A
:108DF8000263284A5360284B01221A60FFF7E2FCFD
:108E08000446244B1B6813F0007F06D1FFF7DAFCF9
:108E1800001B0228F5D9032035E0002033E00020AC
:108E280031E0012B31D01B4B5B6803F48001E26910
:108E3800914201D0012026E003F03F02216A8A42D4
:108E480001D001201FE0616A47F6C0721A40B2EBF8
:108E5800811F01D0012016E003F44031A26A5208B4
:108E6800013AB1EB024F01D001200CE003F070632E
:108E7800E26AB3EB026F0AD0012004E001207047D8
:108E8800012000E0002002B070BD0120FBE70020B7
:108E9800F9E700BF0038024060004742324B9B6848
:108EA80003F00C03042B5CD0082B01D02F4870472B
:108EB8002DE9F04B2C4B5A6802F03F025B6813F423
:108EC800800F2BD0284B5B68C3F388131E460027FE
:108ED8005C010025E41A65EB0705A90141EA9461E4
:108EE800A001001B61EB0501CB0043EA5073C400ED
:108EF800A01943EB07014B0243EAD0534402204632
:108F080019460023FFF75CF9174B5B68C3F301436D
:108F180001335B00B0FBF3F0BDE8F08B124B5B68EC
:108F2800C3F388131E4600275C010025E41A65EB8D
:108F38000705A90141EA9461A001001B61EB050145
:108F4800CB0043EA5073C400A01943EB07018B021E
:108F580043EA90538402204619460023FFF730F96C
:108F6800D2E70348704700BF003802400024F400ED
:108F780000127A00002800F09E8070B50446504B1D
:108F88001B6803F007038B4209D2CBB24C4A13701B
:108F9800136803F007038B4201D0012070BD2368DA
:108FA80013F0020F17D013F0040F04D0454A93684A
:108FB80043F4E0539360236813F0080F04D0414A48
:108FC800936843F4604393603E4A936823F0F00348
:108FD800A068034393600D46236813F0010F32D055
:108FE8006368012B21D09A1E012A25D9354A1268B7
:108FF80012F0020F61D033498A6822F0030213434A
:109008008B60FFF7DFFB06462E4B9B6803F00C03D3
:109018006268B3EB820F16D0FFF7D4FB801B41F2D6
:1090280088339842F0D90320B8E7264A126812F428
:10903800003FE0D10120B1E7224A126812F0007F18
:10904800D9D10120AAE71E4B1B6803F00703AB42E6
:1090580009D9EAB21A4B1A701B6803F00703AB422E
:1090680001D001209AE7236813F0040F06D0154AAF
:10907800936823F4E053E1680B439360236813F08B
:10908800080F07D00F4A936823F46043216943EA25
:10909800C1039360FFF702FF0A4B9B68C3F30313F6
:1090A800094AD35CD840094B1860094B1868FFF788
:1090B8003FFB002072E70120704701206EE700BFE8
:1090C800003C024000380240809300080000002065
:1090D80008000020014B1868704700BF00000020FE
:1090E80008B5FFF7F7FF044B9B68C3F38223034AD5
:1090F800D35CD84008BD00BF0038024090930008F8
:1091080008B5FFF7E7FF044B9B68C3F34233034AF4
:10911800D35CD84008BD00BF0038024090930008D7
:109128002DE9F04B04460268136923F44053C168E3
:109138000B43136183680269134342691343C2698D
:109148001A430168CB6823F4164323F00C03134336
:10915800CB600268536923F4407381690B43536100
:1091680003683A4A934206D002F58062934202D0DD
:10917800FFF7B6FF01E0FFF7C3FFE369B3F5004F60
:1091880030D04FF00009061849EB090716EB000B21
:1091980047EB090C4FEACC0343EA5B734FEACB0277
:1091A80093469C4663689A009B0F10EB0B0049EBB3
:1091B8000C01FFF705F8264DA5FB00325109642282
:1091C80002FB110213013233A5FB03235B0903F0F1
:1091D800F00202EB011203F00F03216813448B60C5
:1091E800BDE8F08B83464FF0000C06184CEB0C07DB
:1091F80016EB000847EB0C094FEAC90343EA58731A
:109208004FEAC8029046994662680021921841EBDD
:1092180001031BEB08004CEB0901FEF7D1FF0C4DD5
:10922800A5FB00325109642202FB1102D30032333C
:10923800A5FB03235B095A0002F4F87202EB011242
:1092480003F00703216813448B60C9E7001001404D
:109258001F85EB5158B310B5044690F83D300BB359
:10926800242384F83D302268D36823F40053D36064
:109278002046FFF755FF2268136923F490431361D2
:109288002268536923F02A0353612268D36843F4A0
:109298000053D36000202064202384F83D3084F8F4
:1092A8003E3010BD80F83C30FFF7EAF9D8E70120DE
:1092B80070470000DFF834D00D480E490E4A0023ED
:1092C80002E0D458C4500433C4188C42F9D30B4A72
:1092D8000B4C002301E013600432A242FBD3FFF7DA
:1092E80019FA00F011F8FFF7A1F970470000022001
:1092F800000000200C000020A89300080C000020AB
:1093080070000020FEE7000070B50D4E0D4CA41B48
:10931800A4100025A54209D10B4E0C4C00F020F8F2
:10932800A41BA4100025A54205D170BD56F8253010
:1093380098470135EEE756F8253098470135F2E7AA
:10934800A0930008A0930008A0930008A493000825
:1093580002440346934200D1704703F8011BF9E722
:10936800F8B500BFF8BC08BC9E467047F8B500BF0A
:08937800F8BC08BC9E467047DA
:1093800000000000000000000102030406070809B5
:089390000000000001020304CB
:0893980060EEFF7F0100000000
:0493A000AD81000893
:0493A40089810008B3
:0C93A8000024F400010000001000000090
:04000005080092BDA0
:00000001FF
