:020000040800F2
:10000000000002203D200008350E0008370E0008D1
:10001000390E00083B0E00083D0E000800000000ED
:100020000000000000000000000000003F0E00087B
:10003000410E000800000000430E0008450E0008B5
:100040008D2000088D2000088D2000088D200008DC
:100050008D2000088D2000088D2000088D200008CC
:100060008D2000088D2000088D2000088D200008BC
:100070008D2000088D2000088D2000088D200008AC
:100080008D2000088D2000088D2000088D2000089C
:100090008D2000088D2000088D2000088D2000088C
:1000A0008D2000088D2000088D2000088D2000087C
:1000B0008D2000088D2000088D2000088D2000086C
:1000C0008D2000088D2000088D2000088D2000085C
:1000D0008D2000088D2000088D2000088D2000084C
:1000E0008D2000088D2000088D2000088D2000083C
:1000F0008D2000088D2000088D2000088D2000082C
:100100008D2000088D2000088D2000088D2000081B
:100110008D2000088D2000088D2000088D2000080B
:100120008D2000088D2000088D2000088D200008FB
:100130008D2000088D2000088D2000088D200008EB
:100140008D2000088D2000088D2000088D200008DB
:100150008D2000088D2000088D2000088D200008CB
:100160008D2000088D2000088D2000088D200008BB
:100170008D2000088D2000088D2000080000000060
:080180008D2000088D2000080D
:1001900010B5054C237833B9044B13B10448AFF3C1
:1001A00000800123237010BD7800002000000000B3
:1001B0000029000808B5034B1BB103490348AFF3FE
:1001C000008008BD000000007C000020002900081D
:1001D00053B94AB9002908BF00281CBF4FF0FF31AE
:1001E0004FF0FF3000F072B9ADF1080C6DE904CEAC
:1001F00000F006F8DDF804E0DDE9022304B0704702
:100200002DE9F047089E04468846002B4BD18A42D0
:10021000154667D9B2FA82F24AB1C2F1200701FA53
:1002200002F320FA07F7954047EA030894404FEAA3
:10023000154E230CB8FBFEF71FFA85FC0EFB178842
:1002400043EA084307FB0CF1994209D9EB1807F17F
:10025000FF3080F01B81994240F21881023F2B440D
:100260005B1AA4B2B3FBFEF00EFB103344EA034466
:1002700000FB0CFCA44509D92C1900F1FF3380F0D8
:100280000781A44540F2048102382C4440EA07402B
:10029000A4EB0C0400271EB1D4400023C6E90043A0
:1002A0003946BDE8F0878B4209D9002E00F0EB807B
:1002B0000027C6E9000138463946BDE8F087B3FAA1
:1002C00083F7002F47D18B4202D3824200F2FA809B
:1002D000841A61EB030301209846002EE0D0C6E9A2
:1002E0000048DDE702B9FFDEB2FA82F2002A40F0F0
:1002F0008F80491B4FEA154E1FFA85F80127B1FB85
:10030000FEFC230C0EFB1C1143EA014308FB0CF11D
:10031000994207D9EB180CF1FF3002D2994200F252
:10032000CD808446591AA3B2B1FBFEF00EFB101427
:1003300043EA044408FB00F8A04507D92C1900F152
:10034000FF3302D2A04500F2B6801846A4EB0804A1
:1003500040EA0C409FE7C7F1200CBB4022FA0CFE9C
:100360004EEA030E01FA07F420FA0CF521FA0CF319
:100370004FEA1E482543B3FBF8F92C0C08FB193350
:100380001FFA8EFA44EA034309FB0AF49C4202FA7C
:1003900007F200FA07F10BD91EEB030309F1FF3056
:1003A00080F087809C4240F28480A9F10209734466
:1003B0001B1BADB2B3FBF8F008FB103345EA034456
:1003C00000FB0AFAA24508D91EEB040400F1FF3332
:1003D0006BD2A24569D90238744440EA0940A0FBB7
:1003E0000289A4EB0A044C45C2464B4654D351D073
:1003F000002E69D0B1EB0A0564EB030404FA0CFC8F
:10040000FD40FC404CEA0505C6E90054002747E7DB
:10041000C2F1200320FA03F7954001FA02F021FA15
:1004200003F34FEA154E3843010CB3FBFEF71FFAF6
:1004300085F80EFB173341EA034107FB08F38B42B3
:1004400004FA02F407D9691807F1FF3C2FD28B4256
:100450002DD9023F2944CB1A81B2B3FBFEF00EFB2B
:10046000103341EA034100FB08F38B4207D96918B6
:1004700000F1FF3C17D28B4215D902382944C91A22
:1004800040EA07473BE73746304609E70746E7E6D5
:100490001846FBE64145ABD2B8EB020A69EB0E0207
:1004A00001381346A4E76046E9E7184695E7674632
:1004B000D1E781467CE702382C4447E7ACF1020CD7
:1004C0002B442FE7384608E73746E9E6704700BF78
:1004D00001F0FF01102A2BDB10F0070F08D010F8F5
:1004E000013B013A8B422DD010F0070F42B3F6D1F9
:1004F000F0B441EA012141EA014122F007047FF012
:1005000000070023F0E80256083C85EA010586EA68
:10051000010685FA47F5A3FA87F586FA47F6A5FAA4
:1005200087F68EB9EED1F0BC01F0FF0102F00702B0
:1005300032B110F8013B013A83EA010313B1F8D15B
:100540000020704701387047002D06BF354603383C
:10055000073815F0010F07D1013015F4807F02BF75
:10056000013015F4C03F0130F0BC0138704700BFC6
:1005700070B588B0002403940494059406940794FD
:100580000194174B1A6B42F001021A631A6B02F0C6
:1005900001020192019A02941A6B42F008021A6356
:1005A0001B6B03F008030293029B0E4D22464FF48F
:1005B0008051284601F017F801260396049405940B
:1005C00003A9094800F01EFF4FF4805303930496DB
:1005D0000594069403A9284600F014FF08B070BDE6
:1005E00000380240000C0240000002400FB400B589
:1005F0008FB010AA52F8041B009201A801F090FDE0
:100600004FF0FF33322201A9034801F039FC0FB04B
:100610005DF804EB04B070477401002010B5094880
:10062000FFF7E4FF084B1C6821460848FFF7DEFF90
:1006300084F30888064B1C6821460648FFF7D6FF5E
:10064000A04710BD30290008008000085C29000880
:100650000480000880290008F0B583B006460D46E6
:1006600017460024FF2008E0335D02A941F8043D4D
:100670000122094800F0CDFC0134AC42F4D3064B12
:100680001A68936843F001039360B84202D00020D7
:1006900003B0F0BD0120FBE76C0100201020704783
:1006A000024B1868C0F30A00704700BF002004E046
:1006B000024B1868C0F30720704700BF00C0FF1F3F
:1006C00000F16043B3F5E03F14D9A3F5E033B3F58F
:1006D000804F11D900F17843B3F5801F0ED3A0F1FC
:1006E0004020A0F50030B0F5805F01D900207047B0
:1006F000012070470120704701207047012070479A
:1007000010B586B008291DD8A0F10803DBB2F62B7E
:100710001AD9FF2813D000230193039004900123DA
:10072000029300F023FD02230593694601A800F01F
:100730001FFE044600F032FD204606B010BD012326
:100740000193ECE70424F7E70424F5E72DE9F041F1
:1007500080460F46164600F009FD0024254608E0B5
:1007600018F804200023E119002000F053FD05468D
:100770000134B442F4D300F011FD2846BDE8F08105
:1007800000B583B0A5238DF804308DF805004FF037
:10079000FF33022201A9034801F072FB03B05DF8A8
:1007A00004FB00BF7401002000B583B002A97F23C1
:1007B00001F8013D4FF0FF330122034801F060FBD7
:1007C00003B05DF804FB00BF7401002008B54FF0D2
:1007D000FF338AB20146024801F052FB08BD00BF58
:1007E0007401002010B582B0044600238DF8073054
:1007F0001348FFF7FBFE21780339C9B2625820463F
:10080000FFF72AFF30B90F48FFF7F0FEFFF7CCFFE4
:1008100002B010BD0C48FFF7E9FE0120FFF7B0FF62
:10082000FFF73CFF014602AC04F8010D0246074801
:10083000FFF7DCFE01212046FFF7C8FFE8E700BF15
:10084000B0290008282A0008E0290008082A000822
:1008500010B504460D48FFF7C9FE21780339C9B227
:1008600062582046FFF7F8FE28B90948FFF7BEFE98
:10087000FFF79AFF10BD0748FFF7B8FE0820FFF703
:100880007FFF08210448FFF7A1FFF3E74C2A000887
:10089000282A0008E02900080000002010B582B0D6
:1008A00004460023ADF806301348FFF79FFE217879
:1008B0000339C9B262582046FFF7CEFE30B90F485F
:1008C000FFF794FEFFF770FF02B010BD0C48FFF772
:1008D0008DFE0220FFF754FFFFF7E2FE014602AC57
:1008E00024F8020D02460748FFF780FE0221204649
:1008F000FFF76CFFE8E700BF7C2A0008282A000801
:10090000E0290008AC2A000810B582B00446002394
:100910008DF807301348FFF769FE21780339C9B213
:1009200062582046FFF798FE30B90F48FFF75EFE89
:10093000FFF73AFF02B010BD0C48FFF757FE012049
:10094000FFF71EFFFFF7B4FE014602AC04F8010DED
:1009500002460748FFF74AFE01212046FFF736FF0F
:10096000E8E700BFCC2A0008282A0008E029000890
:10097000FC2A000810B582B0044600238DF8073029
:1009800001238DF806301948FFF730FE217803392E
:10099000C9B262582046FFF75FFE00B31448FFF764
:1009A00025FE0120FFF7ECFED4F802402046FFF7B9
:1009B00087FE012808D00F48FFF718FE01210DF12E
:1009C0000700FFF703FF0FE001210DF10600FFF71D
:1009D000FDFE01340848FFF709FEA04704E0074880
:1009E000FFF704FEFFF7E0FE02B010BD202B000869
:1009F000E02900087C2B0008502B0008282A00085A
:100A000030B583B0044600238DF807301D48FFF74A
:100A1000EDFD21780339C9B262582046FFF71CFE6C
:100A200030B91948FFF7E2FDFFF7BEFE03B030BD55
:100A30001648FFF7DBFD0120FFF7A2FEE278A17860
:100A40001348FFF7D3FD134D01224FF48051284680
:100A500000F0C9FDE178A078FFF752FE8DF807009D
:100A600000224FF48051284600F0BDFD02AC14F87E
:100A7000011D0948FFF7BAFD01212046FFF7A6FE38
:100A8000D4E700BFA42B0008282A0008E0290008AA
:100A9000D82B0008000C0240102C0008F0B583B0E1
:100AA000044600238DF807308DF806302448FFF700
:100AB0009DFD21780339C9B262582046FFF7CCFD6D
:100AC000B8B32048FFF792FD0120FFF759FED4F894
:100AD0000250A67929461C48FFF788FD2846FFF7F3
:100AE000EFFD012808D01948FFF780FD01210DF125
:100AF0000700FFF76BFE21E01548FFF777FD154F64
:100B000001224FF48051384600F06DFD32462946EF
:100B1000E01DFFF71BFE02AC04F8020D00224FF4AB
:100B20008051384600F05FFD01212046FFF74EFE60
:100B300004E00948FFF75AFDFFF736FE03B0F0BDA9
:100B40003C2C0008E02900086C2C0008C82C000888
:100B5000982C0008000C0240282A000838B502E052
:100B60002948FFF73FFE284CC8220021204601F00B
:100B7000B9FA264D4FF0FF3301222146284601F0F5
:100B8000ECF921464FF0FF3311F8012B284601F014
:100B9000E4F96378513B0B2B32D801A252F823F0D1
:100BA000610B0008D10B0008D90B0008E10B00080D
:100BB000E90B0008F10B0008F90B0008670B0008AF
:100BC000670B0008670B0008670B0008670B00083D
:100BD0000D48FFF73DFEC6E70B48FFF75FFEC2E793
:100BE0000948FFF791FEBEE70748FFF7C3FEBAE7E3
:100BF0000548FFF705FFB6E70348FFF74FFFB2E7E9
:100C00000348FFF7F3FCAEE7A400002074010020C6
:100C1000F82C000872B6FEE708B50448044B0360E0
:100C200000F0E8F900B908BDFFF7F4FF6C010020FF
:100C30000030024008B50A480A4B03604FF4E13324
:100C4000436000238360C36003610C2242618361BF
:100C5000C36101F0E6F800B908BDFFF7DBFF00BF94
:100C6000740100200044004000B595B030220021FE
:100C700008A801F037FA0023039304930593069321
:100C8000079301931F4A116C41F080511164126C5B
:100C900002F080520192019A02931B4A116841F4BA
:100CA00080411160126802F480420292029A02228C
:100CB000089201210B9110210C910E920F930823A1
:100CC0001093A823119312920723139308A800F0FE
:100CD00091FC98B90F2303930223049300230593F7
:100CE0004FF4A05306934FF480530793052103A8B4
:100CF00000F0E8FE20B915B05DF804FBFFF78AFFAD
:100D0000FFF788FF003802400070004008B500F08F
:100D1000E9F8FFF7A9FFFFF72BFCFFF77DFFFFF7CF
:100D200089FF0121084800F057FC012806D0074838
:100D3000FFF75CFCFFF772FC002008BD0448FFF7DA
:100D400055FCFFF70BFF00BF000002406C2D0008B0
:100D5000342D000800B583B0002100910C4B5A6C73
:100D600042F480425A645A6C02F480420092009A23
:100D700001911A6C42F080521A641B6C03F080538C
:100D80000193019B072000F0D9F803B05DF804FB44
:100D9000003802400268094B9A4200D0704782B086
:100DA00000230193064B1A6B42F480521A631B6BAB
:100DB00003F480530193019B02B07047003002405E
:100DC0000038024000B589B00023039304930593D3
:100DD000069307930268154B9A4202D009B05DF85A
:100DE00004FB0021019103F5FA331A6C42F400323E
:100DF0001A641A6C02F400320192019A02911A6B81
:100E000042F001021A631B6B03F001030293029B81
:100E10000C230393022304930323069307230793CE
:100E200003A9034800F0EEFAD8E700BF00440040F1
:100E300000000240FEE7FEE7FEE7FEE7FEE7704740
:100E40007047704708B500F067F808BD08B503465D
:100E50000B4A126842B10A4A106803446A46934238
:100E600006D8074A136008BD054A06491160F2E733
:100E700001F00EF90C2303604FF0FF30F3E700BFE1
:100E800094000020E0010020034AD2F8883043F4A7
:100E90007003C2F88830704700ED00E010B50446DA
:100EA0000E4B18784FF47A73B3FBF0F30C4A1068CA
:100EB000B0FBF3F000F088F868B90F2C01D90120DD
:100EC0000AE0002221464FF0FF3000F049F8034BC2
:100ED0005C60002000E0012010BD00BF0C0000207D
:100EE0000800002008B50B4B1A6842F400721A6023
:100EF0001A6842F480621A601A6842F480721A60BA
:100F0000032000F01BF80020FFF7C8FFFFF722FFC7
:100F1000002008BD003C0240034A1168034B1B78C7
:100F20000B441360704700BFB80100200C00002084
:100F3000014B1868704700BFB8010020074AD3680A
:100F400023F4E0631B041B0C000200F4E060184370
:100F500040F0BF6040F40030D060704700ED00E02A
:100F600030B4174BDB68C3F30223C3F10704042C2E
:100F700028BF04241D1D062D18D9033B4FF0FF3553
:100F800005FA04F421EA0401994005FA03F322EA80
:100F90000303194300280BDB0901C9B200F16040CB
:100FA00000F5614080F8001330BC70470023E5E78E
:100FB00000F00F000901C9B2024B1954F4E700BF59
:100FC00000ED00E014ED00E00138B0F1807F0AD2BE
:100FD000064B5860064AF02182F8231000209860E2
:100FE00007221A6070470120704700BF10E000E040
:100FF00000ED00E058B110B5044643791BB1012360
:101000006371002010BD0371FFF7C4FEF7E70120F4
:10101000704702234371002393420ED230B4046818
:1010200051F82350256001339342F8D303681B68BD
:1010300001224271184630BC704703681B680122C8
:10104000427118467047000010B40A490C6924F434
:1010500040740C610C6944F440740C610C6944F0F8
:1010600001040C610260BFF36F8F43605DF8044BB5
:10107000704700BF003C0240074B1A6922F44072DF
:101080001A611A6942F400721A611A6942F0010287
:101090001A610160704700BF003C0240074B1A69AB
:1010A00022F440721A611A6942F480721A611A6954
:1010B00042F001021A610180704700BF003C02400B
:1010C000064B1A6922F440721A611A691A611A6988
:1010D00042F001021A610170704700BF003C0240FB
:1010E000204BDB6813F0100F07D01F4AD36943F081
:1010F0001003D3611B4B1022DA601A4BDB6813F02C
:10110000200F07D0184AD36943F00803D361154B69
:101110002022DA60134BDB6813F0400F07D0124A2D
:10112000D36943F00403D3610E4B4022DA600D4BC8
:10113000DB6813F0800F07D00B4AD36943F002033A
:10114000D361084B8022DA60064BDB6813F0020F94
:1011500007D0054AD36943F02003D361014B022233
:10116000DA607047003C0240BC010020094B1B695B
:10117000002B01DB00207047064B074A5A6002F142
:1011800088325A601B69002B01DB00207047012068
:10119000704700BF003C024023016745034A1369C2
:1011A00043F0004313610020704700BF003C024041
:1011B00038B50446154B0022DA61FFF7B9FE054643
:1011C000134BDB6813F4803F0AD0B4F1FF3FF7D034
:1011D000CCB1FFF7ADFE401BA042F1D903200DE0DA
:1011E0000B4BDB6813F0010F02D0094B0122DA60D0
:1011F000074BDB6813F0F20F01D1002038BDFFF779
:101200006FFF0120FAE70320F8E700BFBC010020D0
:10121000003C0240F8B51D4C247E012C34D01F4602
:1012200016460D460446194B01221A764CF25030F0
:10123000FFF7BEFF014698B9BCB1012C1AD0022CB1
:101240001DD032463B462846FFF7FEFE4CF250309A
:10125000FFF7AEFF01460E4A136923F00103136145
:101260000A4B00221A760846F8BDF1B22846FFF76D
:1012700027FFEBE7B1B22846FFF710FFE6E731465C
:101280002846FFF7F9FEE1E70221ECE7BC01002068
:10129000003C0240074B1A6922F440721A611A6935
:1012A00042F004021A611A6942EA002040F48030D8
:1012B00018617047003C024010B449B1012921D0A7
:1012C000022902D04FF4407403E04FF4007400E0B0
:1012D00000240E4B196921F4407119611A692243E7
:1012E0001A611A6922F0F8021A611A6942EAC0000A
:1012F00040F0020018611A6942F480321A615DF808
:10130000044B70474FF48074E3E700BF003C024099
:10131000164B1B6813F4007F10D0144B1A6822F48C
:1013200000721A601A6842F400621A601A6822F4A5
:1013300000621A601A6842F400721A600B4B1B6854
:1013400013F4806F10D0094B1A6822F480621A607F
:101350001A6842F480521A601A6822F480521A60A5
:101360001A6842F480621A60704700BF003C024075
:10137000F8B5224B1B7E012B3ED00E4604461F4B78
:1013800001221A764CF25030FFF712FF074670BB6D
:101390004FF0FF3333602368012B16D0A568E36854
:1013A000A2681344AB4220D9217C2846FFF784FF72
:1013B0004CF25030FFF7FCFE114A136923F0FA0398
:1013C0001361074680B90135E9E76168207CFFF7C2
:1013D00061FF4CF25030FFF7EBFE0746084A1369F5
:1013E00023F00403136100E03560FFF791FF034B26
:1013F00000221A763846F8BD0227FBE7BC01002020
:10140000003C024000230F2B00F2DC80F0B482B0DD
:101410005DE086685F000324BC4026EA0406CC68D1
:10142000BC4034438460466826EA02064C68C4F334
:1014300000129A403243426056E0DC08083450F80B
:10144000247003F0070296000F22B24027EA020739
:101450000A69B2403A4340F8242059E0072200E0EC
:101460000022B2403A430234574E46F82420574AED
:101470001468EA4302EA04064F6817F4803F01D07B
:1014800045EA0406514C2660646802EA04064F6887
:1014900017F4003F01D045EA04064C4C6660A4688E
:1014A00002EA04064F6817F4801F01D045EA0406DB
:1014B000464CA660E46822404E6816F4001F01D036
:1014C00045EA0402414CE26001330F2B77D8012238
:1014D0009A400C6804EA0205AA42F5D14C6804F06F
:1014E0000304013C012C94D94A6802F00302032A48
:1014F00009D0C4685E000322B24024EA02048A686C
:10150000B2402243C2604A6802F00302022A94D029
:1015100004685E000322B24024EA02044A6802F032
:101520000302B240224302604A6812F4403FCBD02B
:1015300000220192264A546C44F480445464526C54
:1015400002F480420192019A9C08A61C1E4A52F89D
:10155000267003F0030296000F22B24027EA02072A
:101560001C4A90423FF47CAF02F5806290421AD050
:1015700002F58062904218D002F58062904216D047
:1015800002F58062904214D002F58062904212D03F
:1015900002F58062904210D002F5806290423FF4E2
:1015A0005DAF08225DE701225BE7022259E70322D3
:1015B00057E7042255E7052253E7062251E702B018
:1015C000F0BC7047704700BF00380140003C01404C
:1015D00000380240000002400369194201D1002096
:1015E00070470120704712B9090481617047816119
:1015F00070470000002800F0E98170B582B0044611
:10160000036813F0010F3BD0A74B9B6803F00C035A
:10161000042B2CD0A44B9B6803F00C03082B21D087
:101620006368B3F5803F4FD0B3F5A02F52D09E4BE7
:101630001A6822F480321A601A6822F480221A6032
:101640006368002B50D0FFF773FC0546964B1B6870
:1016500013F4003F14D1FFF76BFC401B6428F5D94D
:101660000320B8E1904B5B6813F4800FD8D08E4B09
:101670001B6813F4003F03D06368002B00F0A881BF
:10168000236813F0020F55D0874B9B6813F00C0FA3
:101690003ED0854B9B6803F00C03082B33D0E368E6
:1016A000002B68D0814B01221A60FFF741FC0546F0
:1016B0007D4B1B6813F0020F54D1FFF739FC401B20
:1016C0000228F5D9032086E1774A136843F4803372
:1016D0001360B5E7744B1A6842F480221A601A68E6
:1016E00042F480321A60ABE7FFF722FC05466E4BEE
:1016F0001B6813F4003FC3D0FFF71AFC401B64289B
:10170000F5D9032067E1684B5B6813F4800FC6D1FD
:10171000654B1B6813F0020F04D0E368012B01D066
:10172000012058E1604A136823F0F803216943EA75
:10173000C1031360236813F0080F40D0636963B3DB
:101740005B4B01221A60FFF7F3FB0546564B5B6FBC
:1017500013F0020F33D1FFF7EBFB401B0228F5D942
:10176000032038E1504A136823F0F803216943EA63
:10177000C1031360DEE74D4B00221A60FFF7D8FB70
:101780000546494B1B6813F0020FD3D0FFF7D0FB7F
:10179000401B0228F5D903201DE1454B00221A60A9
:1017A000FFF7C6FB0546404B5B6F13F0020F06D0F8
:1017B000FFF7BEFB401B0228F5D903200BE123688D
:1017C00013F0040F79D0384B1B6C13F0805F33D1CA
:1017D00000230193344B1A6C42F080521A641B6C44
:1017E00003F080530193019B0125324B1B6813F4D6
:1017F000807F23D0A368012B34D0052B38D02A4B0F
:101800001A6F22F001021A671A6F22F004021A6797
:10181000A368002B36D0FFF78BFB0646224B1B6FCD
:1018200013F0020F48D1FFF783FB801B41F288338E
:101830009842F3D90320CEE00025D6E71D4A13686D
:1018400043F480731360FFF773FB0646194B1B6864
:1018500013F4807FCED1FFF76BFB801B0228F5D9F4
:101860000320B8E0104A136F43F001031367CFE77A
:101870000D4B1A6F42F004021A671A6F42F0010210
:101880001A67C5E7FFF754FB0646074B1B6F13F0BB
:10189000020F11D0FFF74CFB801B41F288339842B6
:1018A000F3D9032097E000BF003802400000474210
:1018B000800E474200700040EDB9A369002B00F094
:1018C0008980484A926802F00C02082A51D0022B03
:1018D00017D0454B00221A60FFF72AFB0446414B04
:1018E0001B6813F0007F42D0FFF722FB001B022889
:1018F000F5D903206FE03B4A136C23F08053136447
:10190000DBE7394B00221A60FFF712FB0546354B27
:101910001B6813F0007F06D0FFF70AFB401B02286C
:10192000F5D9032057E0E369226A1343626A43EA68
:101930008213A26A5208013A43EA0243E26A43EA86
:101940000263284A5360284B01221A60FFF7F0FA1D
:101950000446244B1B6813F0007F06D1FFF7E8FA1A
:10196000001B0228F5D9032035E0002033E00020D9
:1019700031E0012B31D01B4B5B6803F48001E2693D
:10198000914201D0012026E003F03F02216A8A4201
:1019900001D001201FE0616A47F6C0721A40B2EB25
:1019A000811F01D0012016E003F44031A26A5208E1
:1019B000013AB1EB024F01D001200CE003F070635B
:1019C000E26AB3EB026F0AD0012004E00120704705
:1019D000012000E0002002B070BD0120FBE70020E4
:1019E000F9E700BF0038024060004742324B9B6875
:1019F00003F00C03042B5CD0082B01D02F48704758
:101A00002DE9F04B2C4B5A6802F03F025B6813F44F
:101A1000800F2BD0284B5B68C3F388131E4600272A
:101A20005C010025E41A65EB0705A90141EA946110
:101A3000A001001B61EB0501CB0043EA5073C40019
:101A4000A01943EB07014B0243EAD053440220465E
:101A500019460023FEF7BCFB174B5B68C3F3014339
:101A600001335B00B0FBF3F0BDE8F08B124B5B6819
:101A7000C3F388131E4600275C010025E41A65EBBA
:101A80000705A90141EA9461A001001B61EB050172
:101A9000CB0043EA5073C400A01943EB07018B024B
:101AA00043EA90538402204619460023FEF790FB38
:101AB000D2E70348704700BF003802400024F4001A
:101AC00000127A00002800F09E8070B50446504B4A
:101AD0001B6803F007038B4209D2CBB24C4A137048
:101AE000136803F007038B4201D0012070BD236807
:101AF00013F0020F17D013F0040F04D0454A936877
:101B000043F4E0539360236813F0080F04D0414A74
:101B1000936843F4604393603E4A936823F0F00374
:101B2000A068034393600D46236813F0010F32D081
:101B30006368012B21D09A1E012A25D9354A1268E3
:101B400012F0020F61D033498A6822F00302134376
:101B50008B60FFF7EDF906462E4B9B6803F00C03F4
:101B60006268B3EB820F16D0FFF7E2F9801B41F2F7
:101B700088339842F0D90320B8E7264A126812F455
:101B8000003FE0D10120B1E7224A126812F0007F45
:101B9000D9D10120AAE71E4B1B6803F00703AB4213
:101BA00009D9EAB21A4B1A701B6803F00703AB425B
:101BB00001D001209AE7236813F0040F06D0154ADC
:101BC000936823F4E053E1680B439360236813F0B8
:101BD000080F07D00F4A936823F46043216943EA52
:101BE000C1039360FFF702FF0A4B9B68C3F3031323
:101BF000094AD35CD840094B1860094B1868FFF7B5
:101C00004DF9002072E70120704701206EE700BF08
:101C1000003C02400038024018290008080000205B
:101C200010000020014B1868704700BF080000201A
:101C300008B5FFF7F7FF044B9B68C3F38223034A01
:101C4000D35CD84008BD00BF0038024028290008F6
:101C500008B5FFF7E7FF044B9B68C3F34233034A21
:101C6000D35CD84008BD00BF0038024028290008D6
:101C70002DE9F04B04460268136923F44053C16810
:101C80000B43136183680269134342691343C269BA
:101C90001A430168CB6823F4164323F00C03134363
:101CA000CB600268536923F4407381690B4353612D
:101CB00003683A4A934206D002F58062934202D00A
:101CC000FFF7B6FF01E0FFF7C3FFE369B3F5004F8D
:101CD00030D04FF00009061849EB090716EB000B4E
:101CE00047EB090C4FEACC0343EA5B734FEACB02A4
:101CF00093469C4663689A009B0F10EB0B0049EBE0
:101D00000C01FEF765FA264DA5FB0032510964224D
:101D100002FB110213013233A5FB03235B0903F01D
:101D2000F00202EB011203F00F03216813448B60F1
:101D3000BDE8F08B83464FF0000C06184CEB0C0707
:101D400016EB000847EB0C094FEAC90343EA587346
:101D50004FEAC8029046994662680021921841EB0A
:101D600001031BEB08004CEB0901FEF731FA0C4DA7
:101D7000A5FB00325109642202FB1102D300323369
:101D8000A5FB03235B095A0002F4F87202EB01126F
:101D900003F00703216813448B60C9E7001001407A
:101DA0001F85EB512DE9F04104460F461646984633
:101DB000069D23681B6837EA03030CBF0123002339
:101DC000B3422BD1B5F1FF3FF3D02DB1FFF7B0F8FF
:101DD000A0EB0800A842ECD9226802F10C0353E8FA
:101DE000003F23F4D0730C3242E800310029F3D1D4
:101DF000226802F1140353E8003F23F00103143278
:101E000042E800310029F3D1202384F83D3084F8E2
:101E10003E30002384F83C30032000E00020BDE881
:101E2000F08158B310B5044690F83D300BB324232D
:101E300084F83D302268D36823F40053D3602046F1
:101E4000FFF716FF2268136923F490431361226899
:101E5000536923F02A0353612268D36843F4005383
:101E6000D36000202064202384F83D3084F83E3085
:101E700010BD80F83C30FEF7A5FFD8E70120704781
:101E80002DE9F04182B01E4690F83D30DBB2202BA8
:101E900054D104460D469046002954D0002A54D00F
:101EA00090F83C30012B52D0012380F83C300023C5
:101EB0000364212380F83D30FFF73AF80746A4F881
:101EC0002480A4F82680A368B3F5805F05D04FF086
:101ED0000008002384F83C3011E0236913B14FF06F
:101EE0000008F6E7A8460025F3E738F8023B226829
:101EF000C3F308035360E38C013B9BB2E384E38CA0
:101F00009BB273B100963B46002280212046FFF72A
:101F100049FFF0B9002DE8D015F8012B23685A606D
:101F2000E9E700963B46002240212046FFF73AFFB2
:101F3000034680B9202284F83D2000E002231846A1
:101F400002B0BDE8F0810123F9E70123F7E702239E
:101F5000F5E70323F3E70323F1E72DE9F04182B02E
:101F60001E4690F83E30DBB2202B5BD104460D4676
:101F7000904600295AD0002A5AD090F83C30012BC4
:101F800058D0012380F83C3000230364222280F8DB
:101F90003E200363FEF7CCFF0746A4F82C80A4F88C
:101FA0002E80A368B3F5805F05D04FF000080023B2
:101FB00084F83C3016E0236913B14FF00008F6E7CF
:101FC000A8460025F3E723685B68C3F3080328F8F5
:101FD000023B03E023685B682B700135E38D013B16
:101FE0009BB2E385E38D9BB2BBB100963B460022DA
:101FF00020212046FFF7D6FEF0B9002DE3D0A368DC
:10200000B3F5805FE6D013B92369002BE2D02368D3
:102010005B6803F07F032B70DFE7202384F83E30FA
:10202000002000E0022002B0BDE8F0810120FAE7C4
:102030000120F8E70220F6E70320F4E7DFF834D0C8
:102040000D480E490E4A002302E0D458C450043310
:10205000C4188C42F9D30B4A0B4C002301E01360E7
:102060000432A242FBD3FEF70FFF00F017F8FEF791
:102070004DFE704700000220000000207800002084
:10208000F02D000878000020E0010020FEE70000AD
:10209000014B1868704700BF1400002070B50D4E4A
:1020A0000D4CA41BA4100025A54209D10B4E0C4CCD
:1020B00000F026FCA41BA4100025A54205D170BD8C
:1020C00056F8253098470135EEE756F82530984701
:1020D0000135F2E7E82D0008E82D0008E82D00089A
:1020E000EC2D000802440346934200D1704703F8E8
:1020F000011BF9E700B59BB0009104916FF000411E
:102100000591029105490391694600F06DF8009B25
:1021100000221A701BB05DF804FB00BF0802FFFF2D
:1021200013460A46014602480068FFF7E3BF00BFB6
:10213000140000202DE9F0478E689E4282460C462E
:102140009046994637D88A8912F4906F31D0256825
:1021500009696F1A6569022305EB450595FBF3F5DF
:1021600009F101033B449D4238BF1D46530530D55C
:10217000294600F02BFB064650B90C23CAF8003064
:10218000A38943F04003A3814FF0FF30BDE8F087FF
:102190003A46216900F0A8FAA38923F4906343F03A
:1021A0008003A381266165613E44ED1B2660A56026
:1021B0004E464E4500D94E4632464146206800F014
:1021C0009EFAA3689B1BA36023681E442660002020
:1021D000DCE72A4600F054FB06460028E2D12169DC
:1021E000504600F0A5FAC8E72DE9F04F1D468B894F
:1021F0001F069DB080460C4616460FD50B696BB97D
:10220000402100F0E3FA2060206128B90C23C8F8CF
:1022100000304FF0FF30C8E0402363610023099392
:1022200020238DF8293030238DF82A3003954FF084
:10223000010B37463D4615F8013B0BB1252B3ED12E
:10224000B7EB060A0BD05346324621464046FFF70D
:1022500071FF013000F0A480099B534409933B783F
:10226000002B00F09D8000234FF0FF32CDE90523C5
:10227000049307938DF853301A932F46052217F8CD
:10228000011B5048FEF724F9049BD0B9D90644BF7E
:1022900020228DF853201A0744BF2B228DF853209B
:1022A0002A782A2A15D0079A2F4600200A2539466F
:1022B00011F8013B303B092B4DD9B8B10FE02F4647
:1022C000B8E7404A801A0BFA00F0184304903D46E4
:1022D000D3E7039A111D12680391002A01DB0792CC
:1022E00004E0524243F00203079204933B782E2B02
:1022F0000CD17B782A2B33D1039B1A1D1B680392C8
:10230000002BB8BF4FF0FF33023705932E4D3978BD
:1023100003222846FEF7DCF838B14023401B03FABD
:1023200000F0049B034301370493397827488DF864
:10233000281006227E1CFEF7CBF8002838D0244B4C
:1023400013BB039B073323F0070308330393099B55
:102350004B4409936DE705FB023201200F46A6E7C7
:1023600000230137059319460A25384610F8012B3A
:10237000303A092A03D9002BC8D00591C6E705FBDE
:10238000012101230746F0E703AB00932246114BDE
:1023900004A94046AFF30080B0F1FF3F8146D6D19B
:1023A000A3895B063FF535AF09981DB0BDE8F08FF6
:1023B00003AB00932246074B04A9404600F082F885
:1023C000EAE700BFAC2D0008B22D0008B62D0008CA
:1023D00000000000352100082DE9F04791461F4616
:1023E0008A680B69DDF820809342B8BF1346C9F8AC
:1023F000003091F8432006460C4612B10133C9F86B
:1024000000302368990642BFD9F800300233C9F87A
:102410000030256815F0060507D104F1190AE368B4
:10242000D9F800209B1AAB4228DC94F8433022688C
:10243000003318BF012392062DD404F1430239461C
:102440003046C047013020D02368E568D9F8002025
:1024500003F00603042B08BFAD1AA36822690CBF62
:1024600025EAE57500259342C4BF9B1AED184FF08D
:1024700000091A344D451AD1002008E001235246C4
:1024800039463046C047013003D14FF0FF30BDE838
:10249000F0870135C3E7E1185A1C302081F843006A
:1024A000224494F8451082F843100233C5E7012313
:1024B000224639463046C0470130E6D009F10109CD
:1024C000D8E700002DE9F04301F1430C0C46097EEA
:1024D00085B06E291746064698460C9A00F0B380E0
:1024E00022D8632936D00AD8002900F0B9805829AB
:1024F00000F0838004F1420584F8421032E0642940
:1025000001D06929F6D120681368050603F104019A
:102510002AD51B681160002B03DA2D225B4284F858
:1025200043206F480A2239E0732900F09D8008D8C3
:102530006F2920D07029DDD1236843F02003236068
:1025400003E0752917D07829D4D1782384F8453051
:10255000644855E01368191D1B68116004F14205B9
:1025600084F8423001238CE01B68116010F0400FAA
:1025700018BF1BB2CFE713682568181D1060280626
:1025800001D51B6802E06806FBD51B8854486F29FB
:1025900014BF0A220822002184F843106568A56050
:1025A000002DC0F29580216821F004012160002BEC
:1025B0003DD1002D40F08E806546082A0BD123685E
:1025C000DB0708D5236962689A42DEBF302305F82D
:1025D000013C05F1FF35ACEB05032361CDF800802C
:1025E0003B4603AA21463046FFF7F6FE01304DD1A7
:1025F0004FF0FF3005B0BDE8F083394884F845104E
:10260000136821681D1D1B6815600A060BD5CA07D3
:1026100044BF41F0200121601BB9226822F0200252
:1026200022601022B7E74D0648BF9BB2EFE7654630
:10263000B3FBF2F102FB1133C35C05F8013D0B461D
:102640000029F5D1B9E7136825686169181D106084
:1026500028061B6801D5196002E06A06FBD51980BF
:10266000002323616546B9E71368191D11601D68D1
:10267000626800212846FDF72BFF08B1401B60600F
:1026800063682361002384F84330A7E723692A465F
:1026900039463046C0470130AAD023689B0713D47F
:1026A000E068039B9842B8BF1846A3E701234A4657
:1026B00039463046C04701309AD00135E368039A65
:1026C0009B1AAB42F2DCEBE7002504F11909F5E7B0
:1026D000002BACD1037884F8423004F142056CE75A
:1026E000BD2D0008CE2D000810B5431E0A449142AE
:1026F00000D110BD11F8014B03F8014FF7E78842F4
:1027000010B501EB020307D8421E99420AD011F816
:10271000014B02F8014FF8E78342F5D98118D21A2C
:10272000D34200D110BD13F8014D01F8014DF7E778
:1027300038B50546002945D051F8043C0C1F002B44
:10274000B8BFE41800F0D2F81F4A1368104633B936
:10275000636014602846BDE8384000F0C8B8A34262
:102760000CD921686218934204BF1A685B686360E1
:1027700004BF521822600460ECE713465A680AB19D
:10278000A242FAD919685818A0420BD12068014416
:10279000581882421960DDD1106852685A600144AD
:1027A0001960D7E702D90C232B60D3E720682118E2
:1027B0008A4204BF11685268626004BF0918216030
:1027C0005C60C7E738BD00BF9C00002070B5CD1C21
:1027D00025F0030508350C2D38BF0C25002D0646C5
:1027E00001DBA94203D90C233360002070BD00F047
:1027F0007DF8214A1468214691B9204C23681BB901
:10280000304600F063F820602946304600F05EF85C
:10281000431C24D10C233360304600F068F8E4E711
:102820000B685B1B18D40B2B0FD90B60CD50CC1849
:10283000304600F05CF804F10B00231D20F0070087
:10284000C31AD3D05A42E250D0E78C424B6816BF2D
:10285000636013600C46EBE70C464968CCE7C41C88
:1028600024F00304A04205D0211A304600F02EF8CF
:102870000130CFD02560DBE79C000020A0000020C5
:10288000F8B5074614460E4621B91146BDE8F84092
:10289000FFF79CBF22B9FFF74BFF25462846F8BD3E
:1028A00000F026F8A0420FD221463846FFF78EFFEF
:1028B00005460028F2D031462246FFF715FF314683
:1028C0003846FFF735FFE9E73546E7E738B5064C08
:1028D0000023054608462360FEF7B8FA431C02D1E0
:1028E000236803B12B6038BDDC01002070477047BE
:1028F00051F8043C181F002BBCBF0B58C018704780
:10290000F8B500BFF8BC08BC9E467047F8B500BFDC
:08291000F8BC08BC9E467047AC
:102918000000000000000000010203040607080987
:1029280000000000010203045B424C5F444542552D
:10293800475F4D53475D20426F6F746C6F616465EC
:10294800725F4A756D705F546F5F55736572417041
:10295800700A00005B424C5F44454255475F4D5347
:10296800475D204170705F4D53502076616C7565EE
:10297800203A202523780A005B424C5F44454255A3
:10298800475F4D53475D20417070205265736574F1
:102998005F48616E646C65722041646472203A20FD
:1029A8002523780A000000005B424C5F44454255ED
:1029B800475F4D53475D20426F6F746C6F6164656C
:1029C800725F48616E646C655F4765745665725FD7
:1029D800436D640A000000005B424C5F4445425569
:1029E800475F4D53475D2043524320436865636BFF
:1029F80020537563636573732021210A000000006A
:102A08005B424C5F44454255475F4D53475D20420A
:102A18004C5F564552203A202564202523780A0029
:102A28005B424C5F44454255475F4D53475D2043E9
:102A3800524320436865636B204661696C65642076
:102A480021210A005B424C5F44454255475F4D5384
:102A5800475D20426F6F746C6F616465725F486197
:102A68006E646C655F47657448656C705F436D6440
:102A78000A0000005B424C5F44454255475F4D5396
:102A8800475D20426F6F746C6F616465725F486167
:102A98006E646C655F4765744369645F436D640A7F
:102AA800000000005B424C5F44454255475F4D5370
:102AB800475D20434944203A202564202523780A8D
:102AC800000000005B424C5F44454255475F4D5350
:102AD800475D20426F6F746C6F616465725F486117
:102AE8006E646C655F4765745264705F436D640A19
:102AF800000000005B424C5F44454255475F4D5320
:102B0800475D205244505F535441545553203A2056
:102B18002564202523780A005B424C5F44454255D2
:102B2800475F4D53475D20426F6F746C6F616465FA
:102B3800725F48616E646C655F476F546F4164648F
:102B4800725F436D640A00005B424C5F4445425526
:102B5800475F4D53475D204A756D7020746F207430
:102B6800686520476F546F204164647265737320F1
:102B780021210A005B424C5F44454255475F4D5353
:102B8800475D20476F546F204164647265737320FA
:102B9800496E76616C69642021210A005B424C5FB2
:102BA80044454255475F4D53475D20426F6F746CF3
:102BB8006F616465725F48616E646C655F466C61E5
:102BC800736845726173655F436D640A00000000B5
:102BD8005B424C5F44454255475F4D53475D204932
:102BE8006E697469616C5F536563746F723A20250E
:102BF8006420204E6F5F4F66536563746F72733A3B
:102C080020256420200A00005B424C5F4445425561
:102C1800475F4D53475D20466C617368204572617C
:102C2800736520537461747573203A202523780ADC
:102C3800000000005B424C5F44454255475F4D53DE
:102C4800475D20426F6F746C6F616465725F4861A5
:102C58006E646C655F4D656D57726974655F436D31
:102C6800640A00005B424C5F44454255475F4D5340
:102C7800475D204D656D6F727920577269746520C4
:102C8800416464726573733A2025642021210A0027
:102C98005B424C5F44454255475F4D53475D205664
:102CA800616C6964204D656D6F7279205772697423
:102CB8006520416464726573732021210A00000055
:102CC8005B424C5F44454255475F4D53475D205535
:102CD8006E56616C6964204D656D6F72792057720C
:102CE80069746520416464726573732021210A0048
:102CF8005B424C5F44454255475F4D53475D204911
:102D08006E76616C696420636F6D6D616E642063BB
:102D18006F64652072656365697665642066726FA5
:102D28006D20686F7374200A000000005B424C5FDE
:102D380044454255475F4D53475D20427574746F53
:102D48006E2069732070726573736564202E2E205F
:102D5800676F696E6720746F20424C206D6F6465E1
:102D68000A0D00005B424C5F44454255475F4D5396
:102D7800475D20427574746F6E206973206E6F749E
:102D88002070726573736564202E2E204578656304
:102D98007574696E672055736572204170700A0DED
:102DA80000000000232D302B2000686C4C00656665
:102DB8006745464700303132333435363738394184
:102DC800424344454600303132333435363738399A
:082DD80061626364656600009E
:082DE00020D4FF7F0100000078
:042DE800B501000829
:042DEC009101000849
:102DF000515253545556575A0024F4000100000014
:102E0000100000001800002000000000000000007A
:102E100000000000000000000000000000000000B2
:102E200000000000000000000000000000000000A2
:102E30000000000000000000000000000000000092
:102E40000000000000000000000000000000000082
:102E50000000000000000000000000000000000072
:082E600000000000000000006A
:040000050800203D92
:00000001FF
