:020000040800F2
:1000000000000220691500083D0800083F080008AC
:1000100041080008430800084508000800000000E7
:100020000000000000000000000000004708000879
:1000300049080008000000004B0800084D080008AF
:10004000B9150008B9150008B9150008B915000858
:10005000B9150008B9150008B9150008B915000848
:10006000B9150008B9150008B9150008B915000838
:10007000B9150008B9150008B9150008B915000828
:10008000B9150008B9150008B9150008B915000818
:10009000B9150008B9150008B9150008B915000808
:1000A000B9150008B9150008B9150008B9150008F8
:1000B000B9150008B9150008B9150008B9150008E8
:1000C000B9150008B9150008B9150008B9150008D8
:1000D000B9150008B9150008B9150008B9150008C8
:1000E000B9150008B9150008B9150008B9150008B8
:1000F000B9150008B9150008B9150008B9150008A8
:10010000B9150008B9150008B9150008B915000897
:10011000B9150008B9150008B9150008B915000887
:10012000B9150008B9150008B9150008B915000877
:10013000B9150008B9150008B9150008B915000867
:10014000B9150008B9150008B9150008B915000857
:10015000B9150008B9150008B9150008B915000847
:10016000B9150008B9150008B9150008B915000837
:10017000B9150008B9150008B915000800000000FD
:08018000B9150008B9150008CB
:1001900010B5054C237833B9044B13B10448AFF3C1
:1001A00000800123237010BD8800002000000000A3
:1001B0002C1E000808B5034B1BB103490348AFF3DD
:1001C000008008BD000000008C0000202C1E0008EC
:1001D00053B94AB9002908BF00281CBF4FF0FF31AE
:1001E0004FF0FF3000F072B9ADF1080C6DE904CEAC
:1001F00000F006F8DDF804E0DDE9022304B0704702
:100200002DE9F047089E04468846002B4BD18A42D0
:10021000154667D9B2FA82F24AB1C2F1200701FA53
:1002200002F320FA07F7954047EA030894404FEAA3
:10023000154E230CB8FBFEF71FFA85FC0EFB178842
:1002400043EA084307FB0CF1994209D9EB1807F17F
:10025000FF3080F01B81994240F21881023F2B440D
:100260005B1AA4B2B3FBFEF00EFB103344EA034466
:1002700000FB0CFCA44509D92C1900F1FF3380F0D8
:100280000781A44540F2048102382C4440EA07402B
:10029000A4EB0C0400271EB1D4400023C6E90043A0
:1002A0003946BDE8F0878B4209D9002E00F0EB807B
:1002B0000027C6E9000138463946BDE8F087B3FAA1
:1002C00083F7002F47D18B4202D3824200F2FA809B
:1002D000841A61EB030301209846002EE0D0C6E9A2
:1002E0000048DDE702B9FFDEB2FA82F2002A40F0F0
:1002F0008F80491B4FEA154E1FFA85F80127B1FB85
:10030000FEFC230C0EFB1C1143EA014308FB0CF11D
:10031000994207D9EB180CF1FF3002D2994200F252
:10032000CD808446591AA3B2B1FBFEF00EFB101427
:1003300043EA044408FB00F8A04507D92C1900F152
:10034000FF3302D2A04500F2B6801846A4EB0804A1
:1003500040EA0C409FE7C7F1200CBB4022FA0CFE9C
:100360004EEA030E01FA07F420FA0CF521FA0CF319
:100370004FEA1E482543B3FBF8F92C0C08FB193350
:100380001FFA8EFA44EA034309FB0AF49C4202FA7C
:1003900007F200FA07F10BD91EEB030309F1FF3056
:1003A00080F087809C4240F28480A9F10209734466
:1003B0001B1BADB2B3FBF8F008FB103345EA034456
:1003C00000FB0AFAA24508D91EEB040400F1FF3332
:1003D0006BD2A24569D90238744440EA0940A0FBB7
:1003E0000289A4EB0A044C45C2464B4654D351D073
:1003F000002E69D0B1EB0A0564EB030404FA0CFC8F
:10040000FD40FC404CEA0505C6E90054002747E7DB
:10041000C2F1200320FA03F7954001FA02F021FA15
:1004200003F34FEA154E3843010CB3FBFEF71FFAF6
:1004300085F80EFB173341EA034107FB08F38B42B3
:1004400004FA02F407D9691807F1FF3C2FD28B4256
:100450002DD9023F2944CB1A81B2B3FBFEF00EFB2B
:10046000103341EA034100FB08F38B4207D96918B6
:1004700000F1FF3C17D28B4215D902382944C91A22
:1004800040EA07473BE73746304609E70746E7E6D5
:100490001846FBE64145ABD2B8EB020A69EB0E0207
:1004A00001381346A4E76046E9E7184695E7674632
:1004B000D1E781467CE702382C4447E7ACF1020CD7
:1004C0002B442FE7384608E73746E9E6704700BF78
:1004D00001F0FF01102A2BDB10F0070F08D010F8F5
:1004E000013B013A8B422DD010F0070F42B3F6D1F9
:1004F000F0B441EA012141EA014122F007047FF012
:1005000000070023F0E80256083C85EA010586EA68
:10051000010685FA47F5A3FA87F586FA47F6A5FAA4
:1005200087F68EB9EED1F0BC01F0FF0102F00702B0
:1005300032B110F8013B013A83EA010313B1F8D15B
:100540000020704701387047002D06BF354603383C
:10055000073815F0010F07D1013015F4807F02BF75
:10056000013015F4C03F0130F0BC0138704700BFC6
:1005700000B587B00023029303930493059300937F
:10058000094B1A6B42F001021A631B6B03F0010363
:100590000093009B06A9012341F8143D034800F095
:1005A0003DFA07B05DF804FB00380240000002404D
:1005B0000FB400B58FB010AA52F8041B009201A826
:1005C00001F044F84FF0FF3318220449044800F0CA
:1005D0005DFF0FB05DF804EB04B070470000002031
:1005E000BC00002010B50948FFF7E2FF084B1C686B
:1005F00021460848FFF7DCFF84F30888064B1C6897
:1006000021460648FFF7D4FFA04710BD5C1E000836
:1006100000800008881E000804800008AC1E000846
:1006200072B6FEE708B50448044B036000F0E6F933
:1006300000B908BDFFF7F4FFB4000020003002400D
:1006400008B50A480A4B03604FF4E13343600023C6
:100650008360C36003610C2242618361C36100F067
:10066000E6FE00B908BDFFF7DBFF00BFBC000020BD
:100670000044004000B595B03022002108A800F0E9
:10068000C7FF0023039304930593069307930193F5
:100690001F4A116C41F080511164126C02F08052BB
:1006A0000192019A02931B4A116841F48041116042
:1006B000126802F480420292029A022208920121F8
:1006C0000B9110210C910E920F9308231093A823E5
:1006D000119312920723139308A800F091FA98B986
:1006E0000F23039302230493002305934FF4A05395
:1006F00006934FF480530793052103A800F0E8FC0C
:1007000020B915B05DF804FBFFF78AFFFFF788FFFB
:10071000003802400070004008B500F0E7F8FFF72D
:10072000A9FFFFF725FFFFF77DFFFFF789FF0121F5
:10073000074800F05DFA012806D00648FFF738FFA9
:10074000FFF750FF002008BD0348FFF731FFF9E72E
:1007500000000240101F0008D81E000800B583B03A
:10076000002100910C4B5A6C42F480425A645A6C3E
:1007700002F480420092009A01911A6C42F0805279
:100780001A641B6C03F080530193019B072000F057
:10079000D9F803B05DF804FB003802400268094B49
:1007A0009A4200D0704782B000230193064B1A6B27
:1007B00042F480521A631B6B03F480530193019B34
:1007C00002B07047003002400038024000B589B0E6
:1007D0000023039304930593069307930268154B34
:1007E0009A4202D009B05DF804FB0021019103F5A3
:1007F000FA331A6C42F400321A641A6C02F40032B2
:100800000192019A02911A6B42F001021A631B6B6A
:1008100003F001030293029B0C230393022304932E
:10082000032306930723079303A9034800F0F6F870
:10083000D8E700BF0044004000000240FEE7FEE7AA
:10084000FEE7FEE7FEE770477047704708B500F027
:1008500067F808BD08B503460B4A126842B10A4A58
:10086000106803446A46934206D8074A136008BDDD
:10087000054A06491160F2E700F0A0FE0C23036070
:100880004FF0FF30F3E700BFA40000200801002074
:10089000034AD2F8883043F47003C2F888307047B6
:1008A00000ED00E010B504460E4B18784FF47A7353
:1008B000B3FBF0F30C4A1068B0FBF3F000F088F8DB
:1008C00068B90F2C01D901200AE0002221464FF01F
:1008D000FF3000F049F8034B5C60002000E001208D
:1008E00010BD00BF1C0000201800002008B50B4BF5
:1008F0001A6842F400721A601A6842F480621A6040
:100900001A6842F480721A60032000F01BF800207D
:10091000FFF7C8FFFFF722FF002008BD003C0240A0
:10092000034A1168034B1B780B441360704700BFE8
:10093000000100201C000020014B1868704700BF18
:1009400000010020074AD36823F4E0631B041B0C5A
:10095000000200F4E060184340F0BF6040F4003053
:10096000D060704700ED00E030B4174BDB68C3F394
:100970000223C3F10704042C28BF04241D1D062DE7
:1009800018D9033B4FF0FF3505FA04F421EA0401BE
:10099000994005FA03F322EA0303194300280BDB0D
:1009A0000901C9B200F1604000F5614080F8001310
:1009B00030BC70470023E5E700F00F000901C9B221
:1009C000024B1954F4E700BF00ED00E014ED00E025
:1009D0000138B0F1807F0AD2064B5860064AF021F8
:1009E00082F823100020986007221A6070470120C7
:1009F000704700BF10E000E000ED00E058B110B516
:100A0000044643791BB101236371002010BD0371BB
:100A1000FFF7C4FEF7E701207047000000230F2B0B
:100A200000F2DC80F0B482B05DE086685F000324F1
:100A3000BC4026EA0406CC68BC4034438460466867
:100A400026EA02064C68C4F300129A403243426020
:100A500056E0DC08083450F8247003F007029600D2
:100A60000F22B24027EA02070A69B2403A4340F82F
:100A7000242059E0072200E00022B2403A43023429
:100A8000574E46F82420574A1468EA4302EA0406FF
:100A90004F6817F4803F01D045EA0406514C2660A8
:100AA000646802EA04064F6817F4003F01D045EA83
:100AB00004064C4C6660A46802EA04064F6817F40A
:100AC000801F01D045EA0406464CA660E468224037
:100AD0004E6816F4001F01D045EA0402414CE26062
:100AE00001330F2B77D801229A400C6804EA0205E3
:100AF000AA42F5D14C6804F00304013C012C94D9BE
:100B00004A6802F00302032A09D0C4685E00032287
:100B1000B24024EA02048A68B2402243C2604A68B2
:100B200002F00302022A94D004685E000322B2405D
:100B300024EA02044A6802F00302B240224302603F
:100B40004A6812F4403FCBD000220192264A546CEE
:100B500044F480445464526C02F480420192019A3D
:100B60009C08A61C1E4A52F8267003F00302960049
:100B70000F22B24027EA02071C4A90423FF47CAFA2
:100B800002F5806290421AD002F58062904218D03D
:100B900002F58062904216D002F58062904214D035
:100BA00002F58062904212D002F58062904210D02D
:100BB00002F5806290423FF45DAF08225DE70122BA
:100BC0005BE7022259E7032257E7042255E7052293
:100BD00053E7062251E702B0F0BC7047704700BFF0
:100BE00000380140003C0140003802400000024053
:100BF0000369194201D100207047012070470000AD
:100C0000002800F0E98170B582B00446036813F053
:100C1000010F3BD0A74B9B6803F00C03042B2CD097
:100C2000A44B9B6803F00C03082B21D06368B3F539
:100C3000803F4FD0B3F5A02F52D09E4B1A6822F4BC
:100C400080321A601A6822F480221A606368002BCE
:100C500050D0FFF771FE0546964B1B6813F4003F1A
:100C600014D1FFF769FE401B6428F5D90320B8E1D1
:100C7000904B5B6813F4800FD8D08E4B1B6813F435
:100C8000003F03D06368002B00F0A881236813F0B5
:100C9000020F55D0874B9B6813F00C0F3ED0854B4D
:100CA0009B6803F00C03082B33D0E368002B68D05B
:100CB000814B01221A60FFF73FFE05467D4B1B6802
:100CC00013F0020F54D1FFF737FE401B0228F5D96D
:100CD000032086E1774A136843F480331360B5E755
:100CE000744B1A6842F480221A601A6842F4803207
:100CF0001A60ABE7FFF720FE05466E4B1B6813F446
:100D0000003FC3D0FFF718FE401B6428F5D903202D
:100D100067E1684B5B6813F4800FC6D1654B1B68B5
:100D200013F0020F04D0E368012B01D0012058E139
:100D3000604A136823F0F803216943EAC103136092
:100D4000236813F0080F40D0636963B35B4B012243
:100D50001A60FFF7F1FD0546564B5B6F13F0020F6B
:100D600033D1FFF7E9FD401B0228F5D9032038E114
:100D7000504A136823F0F803216943EAC103136062
:100D8000DEE74D4B00221A60FFF7D6FD0546494BC2
:100D90001B6813F0020FD3D0FFF7CEFD401B0228D3
:100DA000F5D903201DE1454B00221A60FFF7C4FD71
:100DB0000546404B5B6F13F0020F06D0FFF7BCFDFA
:100DC000401B0228F5D903200BE1236813F0040F20
:100DD00079D0384B1B6C13F0805F33D10023019323
:100DE000344B1A6C42F080521A641B6C03F080532F
:100DF0000193019B0125324B1B6813F4807F23D0A4
:100E0000A368012B34D0052B38D02A4B1A6F22F05F
:100E100001021A671A6F22F004021A67A368002BF6
:100E200036D0FFF789FD0646224B1B6F13F0020FE9
:100E300048D1FFF781FD801B41F288339842F3D9F6
:100E40000320CEE00025D6E71D4A136843F48073E3
:100E50001360FFF771FD0646194B1B6813F4807F82
:100E6000CED1FFF769FD801B0228F5D90320B8E039
:100E7000104A136F43F001031367CFE70D4B1A6F4E
:100E800042F004021A671A6F42F001021A67C5E7BE
:100E9000FFF752FD0646074B1B6F13F0020F11D0F0
:100EA000FFF74AFD801B41F288339842F3D90320B3
:100EB00097E000BF0038024000004742800E4742E2
:100EC00000700040EDB9A369002B00F08980484A0A
:100ED000926802F00C02082A51D0022B17D0454B21
:100EE00000221A60FFF728FD0446414B1B6813F0EF
:100EF000007F42D0FFF720FD001B0228F5D9032018
:100F00006FE03B4A136C23F080531364DBE7394BEB
:100F100000221A60FFF710FD0546354B1B6813F0E1
:100F2000007F06D0FFF708FD401B0228F5D90320FB
:100F300057E0E369226A1343626A43EA8213A26AB2
:100F40005208013A43EA0243E26A43EA0263284A4A
:100F50005360284B01221A60FFF7EEFC0446244B35
:100F60001B6813F0007F06D1FFF7E6FC001B022888
:100F7000F5D9032035E0002033E0002031E0012BDB
:100F800031D01B4B5B6803F48001E269914201D0D0
:100F9000012026E003F03F02216A8A4201D00120AD
:100FA0001FE0616A47F6C0721A40B2EB811F01D0A0
:100FB000012016E003F44031A26A5208013AB1EB75
:100FC000024F01D001200CE003F07063E26AB3EB42
:100FD000026F0AD0012004E001207047012000E0E8
:100FE000002002B070BD0120FBE70020F9E700BF40
:100FF0000038024060004742324B9B6803F00C030C
:10100000042B5CD0082B01D02F4870472DE9F04B02
:101010002C4B5A6802F03F025B6813F4800F2BD010
:10102000284B5B68C3F388131E4600275C0100252C
:10103000E41A65EB0705A90141EA9461A001001BD0
:1010400061EB0501CB0043EA5073C400A01943EBE8
:1010500007014B0243EAD0534402204619460023BD
:10106000FFF7B6F8174B5B68C3F3014301335B002E
:10107000B0FBF3F0BDE8F08B124B5B68C3F3881351
:101080001E4600275C010025E41A65EB0705A9014F
:1010900041EA9461A001001B61EB0501CB0043EA2A
:1010A0005073C400A01943EB07018B0243EA90532D
:1010B0008402204619460023FFF78AF8D2E7034846
:1010C000704700BF003802400024F40000127A008C
:1010D000002800F09E8070B50446504B1B6803F05A
:1010E00007038B4209D2CBB24C4A1370136803F04A
:1010F00007038B4201D0012070BD236813F0020F5B
:1011000017D013F0040F04D0454A936843F4E0531A
:101110009360236813F0080F04D0414A936843F4A6
:10112000604393603E4A936823F0F003A068034352
:1011300093600D46236813F0010F32D06368012BD2
:1011400021D09A1E012A25D9354A126812F0020FC1
:1011500061D033498A6822F0030213438B60FFF7A2
:10116000EBFB06462E4B9B6803F00C036268B3EB67
:10117000820F16D0FFF7E0FB801B41F288339842C4
:10118000F0D90320B8E7264A126812F4003FE0D1F4
:101190000120B1E7224A126812F0007FD9D1012064
:1011A000AAE71E4B1B6803F00703AB4209D9EAB25A
:1011B0001A4B1A701B6803F00703AB4201D00120E1
:1011C0009AE7236813F0040F06D0154A936823F4B6
:1011D000E053E1680B439360236813F0080F07D0D6
:1011E0000F4A936823F46043216943EAC103936083
:1011F000FFF702FF0A4B9B68C3F30313094AD35C52
:10120000D840094B1860094B1868FFF74BFB0020CA
:1012100072E70120704701206EE700BF003C0240EA
:1012200000380240441E0008180000202000002062
:10123000014B1868704700BF1800002008B5FFF781
:10124000F7FF044B9B68C3F38223034AD35CD84067
:1012500008BD00BF00380240541E000808B5FFF763
:10126000E7FF044B9B68C3F34233034AD35CD84087
:1012700008BD00BF00380240541E00082DE9F04BA5
:1012800004460268136923F44053C1680B43136199
:1012900083680269134342691343C2691A430168B0
:1012A000CB6823F4164323F00C031343CB6002688E
:1012B000536923F4407381690B43536103683A4ACD
:1012C000934206D002F58062934202D0FFF7B6FF48
:1012D00001E0FFF7C3FFE369B3F5004F30D04FF0F3
:1012E0000009061849EB090716EB000B47EB090C40
:1012F0004FEACC0343EA5B734FEACB0293469C462A
:1013000063689A009B0F10EB0B0049EB0C01FEF792
:101310005FFF264DA5FB00325109642202FB11023A
:1013200013013233A5FB03235B0903F0F00202EB48
:10133000011203F00F03216813448B60BDE8F08BAA
:1013400083464FF0000C06184CEB0C0716EB000818
:1013500047EB0C094FEAC90343EA58734FEAC80246
:101360009046994662680021921841EB01031BEBFD
:1013700008004CEB0901FEF72BFF0C4DA5FB0032DA
:101380005109642202FB1102D3003233A5FB03236F
:101390005B095A0002F4F87202EB011203F0070332
:1013A000216813448B60C9E7001001401F85EB5191
:1013B0002DE9F04104460F4616469846069D2368DF
:1013C0001B6837EA03030CBF01230023B3422BD170
:1013D000B5F1FF3FF3D02DB1FFF7AEFAA0EB080057
:1013E000A842ECD9226802F10C0353E8003F23F431
:1013F000D0730C3242E800310029F3D1226802F1A7
:10140000140353E8003F23F00103143242E8003193
:101410000029F3D1202384F83D3084F83E300023A6
:1014200084F83C30032000E00020BDE8F08158B390
:1014300010B5044690F83D300BB3242384F83D30BA
:101440002268D36823F40053D3602046FFF716FFC9
:101450002268136923F4904313612268536923F0CF
:101460002A0353612268D36843F40053D3600020F9
:101470002064202384F83D3084F83E3010BD80F88D
:101480003C30FFF7A3F9D8E7012070472DE9F04180
:1014900082B01E4690F83D30DBB2202B54D104467A
:1014A0000D469046002954D0002A54D090F83C3084
:1014B000012B52D0012380F83C3000230364212308
:1014C00080F83D30FFF738FA0746A4F82480A4F8E6
:1014D0002680A368B3F5805F05D04FF00008002395
:1014E00084F83C3011E0236913B14FF00008F6E7AF
:1014F000A8460025F3E738F8023B2268C3F3080347
:101500005360E38C013B9BB2E384E38C9BB273B1E9
:1015100000963B46002280212046FFF749FFF0B9A4
:10152000002DE8D015F8012B23685A60E9E70096F2
:101530003B46002240212046FFF73AFF034680B990
:10154000202284F83D2000E00223184602B0BDE8C6
:10155000F0810123F9E70123F7E70223F5E70323ED
:10156000F3E70323F1E70000DFF834D00D480E491C
:101570000E4A002302E0D458C4500433C4188C42ED
:10158000F9D30B4A0B4C002301E013600432A24252
:10159000FBD3FFF77DF900F017F8FFF7BDF87047B0
:1015A000000002200000002088000020901F00089A
:1015B0008800002008010020FEE70000014B1868A9
:1015C000704700BF2400002070B50D4E0D4CA41BC9
:1015D000A4100025A54209D10B4E0C4C00F026FCAE
:1015E000A41BA4100025A54205D170BD56F82530D6
:1015F00098470135EEE756F8253098470135F2E770
:10160000881F0008881F0008881F00088C1F00081A
:1016100002440346934200D1704703F8011BF9E7E7
:1016200000B59BB0009104916FF0004105910291CB
:1016300005490391694600F06DF8009B00221A707D
:101640001BB05DF804FB00BF0802FFFF13460A460B
:10165000014602480068FFF7E3BF00BF24000020F6
:101660002DE9F0478E689E4282460C469046994688
:1016700037D88A8912F4906F31D0256809696F1ABA
:101680006569022305EB450595FBF3F509F10103B7
:101690003B449D4238BF1D46530530D5294600F0D6
:1016A0002BFB064650B90C23CAF80030A38943F03F
:1016B0004003A3814FF0FF30BDE8F0873A4621692F
:1016C00000F0A8FAA38923F4906343F08003A38178
:1016D000266165613E44ED1B2660A5604E464E4581
:1016E00000D94E4632464146206800F09EFAA36873
:1016F0009B1BA36023681E4426600020DCE72A466B
:1017000000F054FB06460028E2D12169504600F063
:10171000A5FAC8E72DE9F04F1D468B891F069DB03D
:1017200080460C4616460FD50B696BB9402100F078
:10173000E3FA2060206128B90C23C8F800304FF08C
:10174000FF30C8E0402363610023099320238DF814
:10175000293030238DF82A3003954FF0010B37469E
:101760003D4615F8013B0BB1252B3ED1B7EB060AE0
:101770000BD05346324621464046FFF771FF0130F9
:1017800000F0A480099B534409933B78002B00F0A0
:101790009D8000234FF0FF32CDE90523049307938A
:1017A0008DF853301A932F46052217F8011B504825
:1017B000FEF78EFE049BD0B9D90644BF20228DF8D7
:1017C00053201A0744BF2B228DF853202A782A2A47
:1017D00015D0079A2F4600200A25394611F8013BFB
:1017E000303B092B4DD9B8B10FE02F46B8E7404A3E
:1017F000801A0BFA00F0184304903D46D3E7039A91
:10180000111D12680391002A01DB079204E0524285
:1018100043F00203079204933B782E2B0CD17B7884
:101820002A2B33D1039B1A1D1B680392002BB8BFD0
:101830004FF0FF33023705932E4D397803222846A7
:10184000FEF746FE38B14023401B03FA00F0049B2C
:10185000034301370493397827488DF8281006226E
:101860007E1CFEF735FE002838D0244B13BB039BAB
:10187000073323F0070308330393099B4B44099371
:101880006DE705FB023201200F46A6E70023013772
:10189000059319460A25384610F8012B303A092AD3
:1018A00003D9002BC8D00591C6E705FB0121012310
:1018B0000746F0E703AB00932246114B04A94046CC
:1018C000AFF30080B0F1FF3F8146D6D1A3895B061C
:1018D0003FF535AF09981DB0BDE8F08F03AB00931D
:1018E0002246074B04A9404600F082F8EAE700BF11
:1018F0004C1F0008521F0008561F0008000000007F
:10190000611600082DE9F04791461F468A680B6969
:10191000DDF820809342B8BF1346C9F8003091F833
:10192000432006460C4612B10133C9F80030236843
:10193000990642BFD9F800300233C9F80030256853
:1019400015F0060507D104F1190AE368D9F800205B
:101950009B1AAB4228DC94F843302268003318BF4E
:10196000012392062DD404F1430239463046C04784
:10197000013020D02368E568D9F8002003F0060381
:10198000042B08BFAD1AA36822690CBF25EAE575D0
:1019900000259342C4BF9B1AED184FF000091A347A
:1019A0004D451AD1002008E0012352463946304601
:1019B000C047013003D14FF0FF30BDE8F08701355B
:1019C000C3E7E1185A1C302081F84300224494F800
:1019D000451082F843100233C5E7012322463946F9
:1019E0003046C0470130E6D009F10109D8E70000D0
:1019F0002DE9F04301F1430C0C46097E85B06E29B8
:101A00001746064698460C9A00F0B38022D8632900
:101A100036D00AD8002900F0B980582900F0838018
:101A200004F1420584F8421032E0642901D06929AA
:101A3000F6D120681368050603F104012AD51B6856
:101A40001160002B03DA2D225B4284F843206F489B
:101A50000A2239E0732900F09D8008D86F2920D030
:101A60007029DDD1236843F02003236003E075294A
:101A700017D07829D4D1782384F84530644855E0CC
:101A80001368191D1B68116004F1420584F8423087
:101A900001238CE01B68116010F0400F18BF1BB2CF
:101AA000CFE713682568181D1060280601D51B684C
:101AB00002E06806FBD51B8854486F2914BF0A2230
:101AC0000822002184F843106568A560002DC0F24B
:101AD0009580216821F004012160002B3DD1002D6B
:101AE00040F08E806546082A0BD12368DB0708D5B5
:101AF000236962689A42DEBF302305F8013C05F194
:101B0000FF35ACEB05032361CDF800803B4603AA0B
:101B100021463046FFF7F6FE01304DD14FF0FF3041
:101B200005B0BDE8F083394884F845101368216892
:101B30001D1D1B6815600A060BD5CA0744BF41F07E
:101B4000200121601BB9226822F0200222601022AD
:101B5000B7E74D0648BF9BB2EFE76546B3FBF2F12E
:101B600002FB1133C35C05F8013D0B460029F5D19A
:101B7000B9E7136825686169181D106028061B689D
:101B800001D5196002E06A06FBD5198000232361A4
:101B90006546B9E71368191D11601D686268002168
:101BA0002846FEF795FC08B1401B6060636823611E
:101BB000002384F84330A7E723692A463946304694
:101BC000C0470130AAD023689B0713D4E068039B69
:101BD0009842B8BF1846A3E701234A463946304623
:101BE000C04701309AD00135E368039A9B1AAB4293
:101BF000F2DCEBE7002504F11909F5E7002BACD185
:101C0000037884F8423004F142056CE75D1F000858
:101C10006E1F000810B5431E0A44914200D110BD4A
:101C200011F8014B03F8014FF7E7884210B501EBBB
:101C3000020307D8421E99420AD011F8014B02F85C
:101C4000014FF8E78342F5D98118D21AD34200D167
:101C500010BD13F8014D01F8014DF7E738B5054601
:101C6000002945D051F8043C0C1F002BB8BFE418E4
:101C700000F0D2F81F4A1368104633B9636014604D
:101C80002846BDE8384000F0C8B8A3420CD9216806
:101C90006218934204BF1A685B68636004BF5218FD
:101CA00022600460ECE713465A680AB1A242FAD9EE
:101CB00019685818A0420BD1206801445818824274
:101CC0001960DDD1106852685A6001441960D7E785
:101CD00002D90C232B60D3E7206821188A4204BF65
:101CE00011685268626004BF091821605C60C7E730
:101CF00038BD00BFAC00002070B5CD1C25F0030539
:101D000008350C2D38BF0C25002D064601DBA942F5
:101D100003D90C233360002070BD00F07DF8214A08
:101D20001468214691B9204C23681BB9304600F055
:101D300063F820602946304600F05EF8431C24D149
:101D40000C233360304600F068F8E4E70B685B1B57
:101D500018D40B2B0FD90B60CD50CC18304600F0A7
:101D60005CF804F10B00231D20F00700C31AD3D048
:101D70005A42E250D0E78C424B6816BF6360136052
:101D80000C46EBE70C464968CCE7C41C24F003047E
:101D9000A04205D0211A304600F02EF80130CFD0F5
:101DA0002560DBE7AC000020B0000020F8B5074656
:101DB00014460E4621B91146BDE8F840FFF79CBF16
:101DC00022B9FFF74BFF25462846F8BD00F026F85C
:101DD000A0420FD221463846FFF78EFF0546002865
:101DE000F2D031462246FFF715FF31463846FFF75D
:101DF00035FFE9E73546E7E738B5064C00230546E9
:101E000008462360FEF726FD431C02D1236803B178
:101E10002B6038BD040100207047704751F8043C26
:101E2000181F002BBCBF0B58C0187047F8B500BF77
:101E3000F8BC08BC9E467047F8B500BFF8BC08BCAB
:041E40009E46704703
:101E44000000000000000000010203040607080966
:101E54000000000001020304424C5F444542554720
:101E64005F4D53473A426F6F746C6F616465725F84
:101E74004A756D705F546F5F557365724170700A77
:101E840000000000424C5F44454255475F4D5347B4
:101E94003A4170705F4D53502076616C7565203AFD
:101EA400202523780A000000424C5F4445425547F0
:101EB4005F4D53473A4170702052657365745F48B3
:101EC400616E646C65722041646472203A2025233B
:101ED400780A0000424C5F44454255475F4D5347E2
:101EE4003A427574746F6E206973207072657373EF
:101EF4006564202E2E20676F696E6720746F204200
:101F04004C206D6F64650A0D00000000424C5F4474
:101F1400454255475F4D53473A427574746F6E207E
:101F24006973206E6F742070726573736564202EFC
:101F34002E20657865637574696E672075736572A4
:101F4400206170700A0D0000232D302B2000686C76
:101F54004C006566674546470030313233343536C8
:101F64003738394142434445460030313233343501
:0C1F74003637383961626364656600002E
:081F800080E2FF7F0100000078
:041F8800B501000897
:041F8C0091010008B7
:101F900048656C6C6F2066726F6D20426F6F746C59
:101FA0006F616465720D0A000024F40001000000F6
:101FB00010000000280000200000000000000000C9
:101FC0000000000000000000000000000000000011
:101FD0000000000000000000000000000000000001
:101FE00000000000000000000000000000000000F1
:101FF00000000000000000000000000000000000E1
:1020000000000000000000000000000000000000D0
:082010000000000000000000C8
:040000050800156971
:00000001FF
